:100000000C9439050C9456050C9456050C94560521
:100010000C9456050C9456050C9456050C945605F4
:100020000C9456050C9456050C94C21A0C94041AA0
:100030000C948A260C9456050C9456050C9456057F
:100040000C9456050C9456050C9456050C945605C4
:100050000C9456050C94CC1B0C9456050C94560528
:100060000C9456050C9456050C9456050C945605A4
:100070000C9456050C9456050C9456050C94560594
:100080000C9456050C9456050C9456050C94560584
:100090000C9456050C9456050C9456050C94560574
:1000A0000C9456050C9456050C945605C006BC06D7
:1000B0006C06720678067E0684068A069006960608
:1000C0009C06A206A806AE06B406BC08BC08EB084F
:1000D000EB08550971097B0A7B0A7C09F009010AC2
:1000E000010A17183E18EC193E18EC198A18AD18B9
:1000F000EC19A219B219D11DD41DD71DDA1DDF1DAF
:10010000E41DE21D601F631F661F691F6C1F6F1FC8
:10011000721F01014D01043130307C0101280104BE
:100120003130307C0102E00101190103E0000101DE
:100130004A01043130307C01012801043130307C27
:100140000101520001014A01043130307C0102E119
:1001500001014D0103E101043130307C0102E00175
:1001600001060103E00001014A01043130307C0145
:1001700002E101014D0103E101043130307C010154
:100180002A0001014A01043130307C0102E1010101
:100190004D0103E101043130307C01012A000102EC
:1001A000E10101340103E101043130307C0102E15D
:1001B0000101340103E101043130307C01015000C0
:1001C00001013401043130307C010134010431304B
:1001D000307C0101500001014D01043130307C01BF
:1001E0000128000102E10101360103E1010431307F
:1001F000307C0102E10101370103E10104313030BB
:100200007C010150000102E101012F0103E1010421
:100210003130307C0102E10101300103E1010431A0
:1002200030307C0101500001012F01043130307C5D
:1002300001013001043130307C010150000102E144
:100240000101260103E101043130307C0102E101AA
:1002500001270103E101043130307C01015000012C
:1002600002E101014D0103E101043130307C010163
:100270002A001E0F0500047F3F1F643214643214ED
:10028000783C1E1E140A052B042B012961E100E0B5
:100290000000001E00140004001D00640036021F50
:1002A000001A0016001B0035002A00200008000775
:1002B000000600E2002C00210015000900190001D1
:1002C000582F02220017000A000500000026020035
:1002D000072D0000002D0200002F00000F2E00004F
:1002E000002E020000300023001C000B0011000053
:1002F000002702240018000D0010003402300225EF
:10030000000C000E00360034002800260012000FFA
:1003100000370031022B0027001300330038003271
:1003200000370203530007E300E1004C0000000126
:1003300000AC0001000100010000003A001A014D6C
:100340000001000100BA5D3B004F0116014C0001A5
:100350000001003C000F014C01B65D010001003DB1
:10036000001C010100E1000100B95D3E0001000038
:100370005750010000B75D3F000100000001000080
:1003800000B85D40000100000001000000010041D4
:10039000000601500001000000010042001D015153
:1003A0000001000100010043004A0052000100BCAE
:1003B0005D2A014400BB5D4F000100BD5D010045A9
:1003C000001901AE000901C45C01000100AB00018D
:1003D000000100C35C00000100AC0001000100014D
:1003E0000000001E011A014D000100FD004B001F1E
:1003F000014F0116014C00FE00500920010F01BE03
:100400005DBF5DFF00F10021011501010049000100
:1004100000010022010100015750010000FB0023F0
:1004200001160A000001000000FA0024010100008A
:100430000001000000F9002501C05DEF000100008F
:1004400000FC0026011D01EE00010001000100A8D2
:10045000004A00ED0001000100F200AA00C15DF0B9
:1004600000010001004F09A900C25DAE00090101B1
:10047000004E000100AB000100010001000000017E
:1004800000010001000100CD5C000059004C00019A
:10049000000100CC5CC75C5A00F10016011B01C9C9
:1004A0005C01005B000F05F200FD00010001005C33
:1004B0000015010501FE00C85CCB5C5D0001000178
:1004C00000FF000000FB005E0001000000010000D2
:1004D00000FA005F000100000001000000F9006068
:1004E000000601EF00AC000000FC0061001D01EE01
:1004F00000AA000100CA5C62000100ED00A9000131
:1005000000010001000100F000AB000100010053F8
:100510000019010100A800B35DC65C0100010001E3
:10052000000100005C000001000100290001000141
:1005300000000001000100010001000100010001B4
:10054000000100010001000100280001000100017C
:1005500000010001002B0001000100010001002C3E
:100560000001000100010001000100000001000184
:100570000001000000010000000100010001000076
:100580000000500000010001000100010001000016
:100590000001000100010001000100010001000153
:1005A0000001000100010001000100010001000143
:1005B0000001000100010001000100010001000133
:1005C0000001000100010001000100010000000520
:1005D000010980A101850319012AB700150126B779
:1005E00000950175108100C0050C0901A101850469
:1005F00019012AA002150126A0029501751081009B
:10060000C005010906A1018506050719E029E715BE
:100610000025019508750181020507190029EF15CC
:1006200000250195F075018102050819012905953C
:100630000575019102950175039101C0050109023B
:10064000A1010901A10005091901290815002501C9
:100650009508750181020501093009311581257F51
:1006600095027508810609381581257F9501750861
:100670008106050C0A38021581257F9501750881D0
:1006800006C0C00660FF0961A1010962150026FFCE
:10069000009520750881020963150026FF0095204A
:1006A00075089102C005010906A101050719E02995
:1006B000E7150025019508750181029501750881EE
:1006C000010507190029FF150026FF00950675088A
:1006D000810005081901290595057501910295010B
:1006E00075039101C009027400040100A0FA090415
:1006F0000000010301010009211101000122400055
:10070000070581030800010904010002030000003D
:1007100009211101000122220007058303200001A5
:10072000070504032000010904020001030102007F
:100730000921110100012247000705820308000179
:100740000904030001030000000921110100012236
:100750006D00070585032000011201000200000062
:100760000897327549010001020001220345007219
:100770000067006F0044006F007800200045005AB9
:100780000020005300680069006E0065000000282A
:10079000035A0053004100200054006500630068C4
:1007A000006E006F006C006F006700790020004C45
:1007B00000610062007300000004030904000101ED
:1007C0000101010101010102020202020202020210
:1007D00003030303030303030404040404040405E0
:1007E00005050505060606060607070707070808A4
:1007F0000808090909090A0A0A0B0B0B0C0C0C0D55
:100800000D0D0E0E0E0F0F0F1010111111121213ED
:10081000131414151516161717181819191A1A1B68
:100820001B1C1D1D1E1E1F202021222223242425C7
:100830002626272829292A2B2C2D2D2E2F30313200
:1008400032333435363738393A3B3C3D3E3F404110
:1008500042434445464748494A4C4D4E4F505153F8
:1008600054555658595A5B5D5E5F616264656668AF
:10087000696B6C6D6F7072737577787A7B7D7E8033
:1008800082838587888A8C8E8F91939596989A9C7F
:100890009EA0A2A3A5A7A9ABADAFB1B3B5B7BABC93
:1008A000BEC0C2C4C6C9CBCDCFD1D4D6D8DBDDDF64
:1008B000E2E4E7E9EBEEF0F3F5F8FAFDFFFFAA7FDB
:1008C00055402223252628292A2C2D2F3032333536
:1008D00036383A3B3D3E4042434547494A4C4E50EC
:1008E00051535557595A5C5E6062646668696B6D16
:1008F0006F71737577797B7D7F81838587898A8C1A
:100900008E90929496989A9C9E9FA1A3A5A7A8AA20
:10091000ACAEAFB1B3B4B6B8B9BBBCBEBFC1C2C355
:10092000C5C6C7C9CACBCCCDCED0D1D2D2D3D4D5EF
:10093000D6D7D7D8D9D9DADADBDBDBDCDCDCDCDC18
:10094000DDDDDDDDDCDCDCDCDCDBDBDBDADAD9D9F0
:10095000D8D7D7D6D5D4D3D2D2D1D0CECDCCCBCA7E
:10096000C9C7C6C5C3C2C1BFBEBCBBB9B8B6B4B3A4
:10097000B1AFAEACAAA8A7A5A3A19F9E9C9A98963A
:100980009492908E8C8A89878583817F7D7B79770D
:100990007573716F6D6B6968666462605E5C5A59ED
:1009A00057555351504E4C4A4947454342403E3DAE
:1009B0003B3A3836353332302F2D2C2A292826253C
:1009C00023220000000000000000000000000000E2
:1009D0000000000000000000000000000000000017
:1009E0000000000000007E0F00D4FFFFFFC70000E2
:1009F000007800000000000000002A2B2800000002
:100A000000000000000000000000000000290000BD
:100A100000002C1E3420212224342627252E362D9A
:100A20003738271E1F202122232425263333362E34
:100A300037381F0405060708090A0B0C0D0E0F10A6
:100A40001112131415161718191A1B1C1D2F3130EB
:100A5000232D350405060708090A0B0C0D0E0F108F
:100A60001112131415161718191A1B1C1D2F3130CB
:100A7000354C11241FBECFEFDAE0DEBFCDBF11E051
:100A8000A0E0B1E0E8EAFDE502C005900D92A03CCF
:100A9000B107D9F723E0A0ECB1E001C01D92A03A64
:100AA000B207E1F70E94C20A0C94D22E0C94000007
:100AB000A5E2B0E0EEE5F5E00C940D2CFC018081A0
:100AC000918123813481232B31F09F3F31F491E0D8
:100AD0008F3F19F403C091E001C090E090FD4EC536
:100AE0007F0185E0DE01919601900D928A95E1F7F4
:100AF000D70112962C9189A19AA1222349F00E9434
:100B0000AF27182F682F89A19AA10E941F2803C020
:100B10000E94EB27182F69A17AA1812F0E94F70F5D
:100B20008C01F70182818823E1F080916F0390911D
:100B300070030097B1F08017910799F0FEE08F9F46
:100B4000C0011124FC01E55EFE4F2081246020835A
:100B50008A5E9E4FDC010D931C930E942E271092FB
:100B60006E0390919903F7018281992309F44DC096
:100B70008111F0C4E091C201E330A0F481E08E0F56
:100B80008093C201F0E0EE0FFF1FE250FE4FD7014D
:100B90008D919C919183808382E08983CE0101961F
:100BA0000E94F62ABFEFE3EDF0E3B150E040F040E1
:100BB000E1F700C000008091C201833009F0CAC48F
:100BC0001092C201E4E0F2E0AEEFB1E08AE092E020
:100BD000318111962C91119732132EC030812C91B6
:100BE00032132AC0329612968E179F0789F784E037
:100BF000898381E080939A038EEF8A831092990310
:100C0000CE0101960E94F62AA5C490919A039923D9
:100C1000C1F0882311F086E001C087E08983D70105
:100C20008C918A8311968C918B838EEF8C83CE016D
:100C300001960E94F62A05C083E0898310929A03E8
:100C4000DBCFF7018281033BFDE51F07D1F5882348
:100C500009F4F4C09091C60181E0890F8770987FF4
:100C6000853020F4892B8093C60102C09093C60181
:100C70008091C6018770BFEF8B9FC00111249595AD
:100C800087959595879599279093890080938800FB
:100C900090938B0080938A0090938D0080938C00BA
:100CA0004091C6015091C7016091C8017091C9017E
:100CB0008FE090E00E94DF2C8091D9010E94BA1D44
:100CC000BDC0F801E45BFD45EF30F10508F062C0FE
:100CD000EA5AFF4F0C94822D882309F44CC48FE507
:100CE00092E047C0882309F446C48DE392E041C0F6
:100CF000882309F440C487E292E03BC0882309F4CA
:100D00003AC485E092E035C0882309F434C483EE08
:100D100091E02FC0882309F42EC486ED91E029C00C
:100D2000882309F428C480EC91E023C0882309F4C7
:100D300022C48EE991E01DC0882309F41CC482E816
:100D400091E017C0882309F416C486E691E011C02B
:100D5000882309F410C484E491E00BC0882309F4CB
:100D60000AC48EE291E005C0882309F404C482E13C
:100D700091E00E94FB2962C0882309F4EBC31BC1E8
:100D8000882309F4E7C39091C30181E08927809308
:100D9000C301E0C3980137552F3F310511F008F02A
:100DA0004DC05801BB242EE0029FF0011124DF0149
:100DB000AA5EBE4F6D01E55EFE4F908180FB90F90B
:100DC0009083F7018281882309F482C10E947E26E4
:100DD0009093FC018093FB01D60112968C9112979F
:100DE0008F5F12968C93129790916E038091980268
:100DF000892B13968C9313978091830214968C936E
:100E000014971696ED91FC911797309731F01C9638
:100E10006D917C911D97C60109958EE08A9DF00128
:100E20008B9DF00D1124E55EFE4F808181FF4DC149
:100E300090E080E090936F0380937003F7019281BC
:100E40009111D4C08091980282720D3CFCE51F077D
:100E500009F4AAC008F045C0073C3CE5130709F4B3
:100E60008FC0D8F4043CBCE51B0709F47FC030F404
:100E7000033CFCE51F0709F46DC0B5C0053C2CE53B
:100E8000120709F478C0063C3CE5130709F0ABC033
:100E900042E352E26CE372E28BC00A3CACE51A0713
:100EA00009F478C078F4083CECE51E0709F46DC03D
:100EB000093CFCE51F0709F096C045E252E268E1F3
:100EC00072E276C00B3C2CE5120709F468C00C3CBA
:100ED0003CE5130709F087C043E950E265EA70E298
:100EE00067C0023D8CE5180709F46DC0A0F40F3C03
:100EF000BCE51B0709F461C008F45DC0003DFCE5DA
:100F00001F0709F45DC0013D2CE5120709F06BC015
:100F10006EE089E065C0053D3CE5130709F459C062
:100F200060F4033DACE51A0709F450C0043DBCE58C
:100F30001B0709F058C088E150C0063DECE51E07CC
:100F400009F44AC00F35FDE51F0709F04CC06AE2FD
:100F500085E246C08091690380FF03C00E94B720EC
:100F6000F9C2816080936903869537C04AEB53E2EA
:100F700064EC73E21DC044EC53E26AEB73E218C008
:100F80004CE352E262E372E213C048E152E265E2EE
:100F900072E20EC04EEF51E26BE072E209C04BE02C
:100FA00052E26EEF71E204C045EA50E263E970E29A
:100FB0000E948C27CFC281E010C065E082E010C0A3
:100FC00068E086E00DC064E18FE00AC067E185E17A
:100FD00007C062E289E104C083E20E94B623BAC27C
:100FE0000E947927B7C2992309F478C00C352DE502
:100FF000120709F464C060F401158CE51807A9F024
:101000000F3D9CE5190709F069C00E94AC114CC066
:101010000E35ADE51A0709F44AC008F452C0093A82
:10102000EDE51E0709F440C059C0109298020E94D5
:10103000D328FFEF24E33CE0F15020403040E1F7BB
:1010400000C00000F89481E08093E00080E280938B
:10105000D8001092C9008FE19EE40197F1F700C01B
:1010600000001DBA109268001CBC10BE1FBA10927E
:101070007A0010926E0010926F0010927100109220
:1010800072001092C9001092BC0014B817B81AB8B8
:101090001DB810BA1092BC0015B818B81BB81EB80D
:1010A00011BA0C94003F56C20E94121D53C2809187
:1010B000930282FB882780F991E0892703C081E0B1
:1010C00001C080E00E94A81209C0902F812FB2CEEB
:1010D00091FF51C2CD010E941427B0CED7011296C4
:1010E0008C9112970D911C91882349F0C8010E94A0
:1010F000AF27D82E682FC8010E941F2804C0C8013E
:101100000E94EB27D82EB8018D2D0E94F70F0E9468
:1011100010108C01982EF701D280C580C2949FE0F8
:10112000C922809162028770B9F0DD20A9F0812F79
:10113000807F803421F080E2800F883068F08091D9
:10114000930282FF09C082E00E948B1280916202AA
:101150008770BB24B3948111B12CA12EA2948FE08F
:10116000A8228A2D90E08C30910508F0C4C1FC01C2
:10117000EB59FF4F0C94822D812F807F1F708823A5
:1011800011F01295107FDD20B9F0112309F4A1C1EF
:1011900080E2800F883010F0911006C08091980294
:1011A000182B1093980205C080916E03182B109392
:1011B0006E030E9436128DC1802F0E9409291123CF
:1011C00009F499C1005E812F083060F1992051F136
:1011D0000E94281229C0812F807F1F70803211F059
:1011E0001295107F992021F0F1E09F16D9F147C0A8
:1011F0008091930282FD1BC0DD2069F0112339F03C
:1012000080919802182B109398020E94361280E069
:101210000E943E2970C180E00E940929112309F42F
:101220006AC1812F0E942F120E94361264C1DD20F4
:1012300081F080918302CC2051F021E0C21207C0DE
:10124000182B181709F457C11093830254C1812B2E
:1012500010C0CC2021F031E0C31609F44CC10E942B
:1012600022121FC0DD2041F081E08C1508F443C13B
:10127000812F0E94FF283FC1C1103DC112C0DD2057
:1012800019F0CC20A9F325C1CC2059F0093309F07D
:101290002FC19FEFA7EEB3E09150A040B040E1F71F
:1012A00025C1812F0E94F82826C1812F8695869519
:1012B000837019F0813059F01EC1DD2019F0C8018A
:1012C000937002C080E090E00E94F1261AC1DD20F8
:1012D00019F0C801937002C080E090E00E94DB2604
:1012E00010C1802FDD2019F00E94002302C00E944F
:1012F00046220E94CF2305C1812F8370A9F5D1100A
:10130000FEC0402F429546954770440F440F802FF2
:101310008F7090E09C01042E01C0220F0A94EAF71E
:1013200004FF08C08FE090E001C0880F4A95EAF7FB
:10133000809501C080E0169516951370123069F003
:1013400088F490918402113019F0822B892302C015
:10135000922B892B0E949728D2C0822B90918402D5
:101360008927F8CF822BF6CFDD2019F0812F8170ED
:1013700001C08695882309F4C2C0402F4295469546
:101380004770440F440F802F8F7090E09C01042E13
:1013900001C0220F0A94EAF704FF08C08FE090E032
:1013A00001C0880F4A95EAF7809501C080E0169544
:1013B00016951370123059F078F49091D9011130CC
:1013C00019F0822B892309C0922B892B06C0822B0E
:1013D0009091D901892701C0822B0E9454288FC087
:1013E0001F70DD2039F0812F0E948B28802F0E94F2
:1013F000FF2885C0802F0E94F828812F0E947E2818
:101400007EC0802FE2EF9E1669F1E91538F0F0EF0B
:101410009F1659F021EF921601F157C033EF931642
:1014200041F194EF9916A9F050C0DD2069F0C11088
:1014300062C01F7181E090E001C0880F1A95EAF741
:101440009091D90189271FC0A1E0AC1508F453C0C1
:10145000F0CF8091930282FD19C0DD2029F0812F09
:101460008F7126C0DD20D9F3812F8F710E947E28D5
:1014700042C0DD2039F01F7181E001C0880F1A954C
:10148000EAF701C080E00E94542835C0DD2099F0C1
:101490001F71812F0E948B288091930282FF07C0C9
:1014A000B8E01B9FC0011124836080936202812FEA
:1014B0000E948B2820C081E00E948B12E1E0EC1595
:1014C000D0F482E00E948B1216C0DD2021F0CC20E7
:1014D00031F2802F9DCECC2039F2893349F4FFEFD1
:1014E00027EE33E0F15020403040E1F700C000002B
:1014F000802F0E94092988EF8A0D843010F40E9401
:101500000727BB20B1F08091620280FD12C0D70195
:1015100012961C928595859585950E948B28C7010A
:101520000E945805809162028595859585950E9457
:101530007E2885E0F701DE01119601900D928A95D3
:10154000E1F709811A81C8010E94EB27B8010E94C6
:10155000F70F14C080916202877081F0D701129654
:101560008C91882359F08091930282FF07C082E01A
:101570000E948B1203C0F701928164CCA596EBE028
:101580000C94292CACE5B0E0E8ECFAE00C94092CC2
:1015900085B7806885BF85B7806885BF84B7877F3A
:1015A00084BF0FB6F894A8958091600088618093FD
:1015B0006000109260000FBE90E080E80FB6F894D3
:1015C00080936100909361000FBE82EB9FE0909347
:1015D000C1018093C0010E94481A0E94671A80913D
:1015E000E20084608093E200789480919B038823DA
:1015F000A1F01091E9001F709091EC00892F81708B
:1016000090FD80E8182B1092E9008091E80083FD9E
:101610000E9432171F701093E90082E084BD93E0AE
:1016200095BD9AEF97BD80936E000E943B1E90E09F
:1016300090933501809334010E94761F0E94BC1F55
:10164000EAECF1E0AEEDB1E011921D9221E0E83D4F
:10165000F207D1F78EE090E00E94972D8093C401AD
:101660009093C501FC010E961192E817F907E1F776
:1016700089EA8093800089E08093810024982C98E7
:101680003F988AB18F7C8AB96E98479A8BB18063F4
:101690008BB9769A8FE090E00E94B12C6093C601DE
:1016A0007093C7018093C8019093C90167703FEFA1
:1016B000639FB00111247595679575956795772798
:1016C000709389006093880070938B0060938A0008
:1016D00070938D0060938C000E94B21E80E090E0B9
:1016E0000E94B72C883E9E4F11F00E94AC1182E000
:1016F00090E00E94A92C8093EC0184E090E00E948D
:10170000A92C182F82E290E00E94A92C212F30E012
:10171000382B309393022093920283E090E00E9452
:10172000A92C0E9497288091D9010E94BA1D80910E
:10173000D801811136C080E090E00E94B72C883E2D
:101740009E4F21F00E94AC110E94D02088E090E0D2
:101750000E94B12C6093690370936A0380936B03BA
:1017600090936C036E7F71F40E94D02088E090E02B
:101770000E94B12C6093690370936A0380936B039A
:1017800090936C030E946D201092DE028091690399
:1017900080FF04C060E086950E94712381E0809301
:1017A000D8018091D9010E94BA1D8AE091E09093FE
:1017B00074038093730388E1E82EF12C9CEEC92E0C
:1017C00091E0D92E80919B03853009F07EC000E422
:1017D000B02EAA24A39400E112E180919B038530EE
:1017E00009F064C080919B03843009F43DC01092DD
:1017F000DE028091DB01811116C0A092DB01809195
:101800006903982F91709093DA018E7F809369031A
:10181000FFEF20E732E0F15020403040E1F700C018
:1018200000000E94C91F109277030FB6F894A89584
:10183000E09260000FBEB092600083B7817F846049
:1018400083BF83B7816083BF7894889583B78E7F89
:1018500083BF0FB6F894A89580916000886180934B
:101860006000109260000FBE8091BC02882309F4D2
:10187000B4CF0E943B1E90E09093350180933401D9
:101880000E94761F0E94BC1FEEEDF1E0119241E034
:10189000EC3EF407D9F70E94BE14EEEDF1E0819121
:1018A00081113FC3CE16DF06D1F797CF1092980271
:1018B0000E94D3280E9407271092DB018091DA0151
:1018C00081110E94AC230E945B230E94BE141DEE76
:1018D000A12E11E0B12EAEEDB1E0F50191918D9107
:1018E000892791E0EB3FF90719F08823B9F332C05B
:1018F000811130C00E947E268C018091DC01909184
:10190000DD010817190709F473C08FEF64968FAFD4
:10191000649765968FAF659766961FAE66970E942F
:101920007E268160782F68969FAF8EAF6897649609
:101930004FAD649765965FAD659766966FAD669798
:1019400068968FAD68970E945F1C1093DD0100932D
:10195000DC014EC0BEED8B2EB1E09B2E10E0F401F9
:1019600051904F01F5016080652481F100E07724FA
:101970007394862D872121F169960FAF69976A9636
:101980001FAF6A9791E0852D872109F490E06B964F
:101990009FAF6B970E947E268160782F6D969FAFD8
:1019A0008EAF6D9769964FAD69976A965FAD6A97EE
:1019B0006B966FAD6B976D968FAD6D970E945F1CA8
:1019C0000F5F770C0630A9F6F50150821F5FFFEF1D
:1019D000AF1ABF0A1E3009F0C2CF8FB7F8944091FA
:1019E0008E0250918F0260919002709191028FBF90
:1019F00080916F0390917003892BC9F08091FB0156
:101A00009091FC010E94F21B863A910580F0809132
:101A10006F032EE0829FC0011124FC01E55EFE4FA2
:101A2000208122FD04C08A5E9E4F0E942E27809155
:101A3000DE02882309F4A5C08091DD02E0916903EC
:101A4000E695E81BE093D902823059F4F0E0ED57B7
:101A5000FD4FE4910E2F10E0AAE6AA2EA6E2BA2EC0
:101A60006BC0863059F4F0E0E058FD4FE4910E2F42
:101A700010E0FAE5AF2EF6E2BF2E5EC0893061F4C9
:101A8000E695F0E0E358FD4FE4910E2F10E0E6EF0D
:101A9000AE2EE5E2BE2E50C08F3061F4E695F0E048
:101AA000E658FD4FE4910E2F10E070E9A72E75E285
:101AB000B72E42C0853159F4F0E0E958FD4FE4916A
:101AC0000E2F10E060E4A62E65E2B62E35C08831F8
:101AD000F9F0833249F4E5E7F2E00591149150E220
:101AE000A52E56E2B52E28C08432C9F08532F1F415
:101AF0008E2F63E00E94542DE92FF0E0EE58FD4F49
:101B0000E4910E2F10E047EFA42E43E2B42E14C050
:101B100008E210E035ECA32E34E2B32E0DC004EF42
:101B200011E02DE8A22E24E2B22E06C000ED17E04F
:101B300096EFA92E93E2B92E8091DA02882361F004
:101B40001092DA020E947E269093D8028093D702E8
:101B50001092DC021092DB020E947E26E091D702F6
:101B6000F091D8028E1B9F0B8F3F9F4750F40E0FB2
:101B70001F1F1093D8020093D70287ED92E0F50162
:101B8000099585E0E1EDF2E0DE01119601900D92FC
:101B90008A95E1F71092D2021092D3021092D402E9
:101BA0001092D5021A81111104C08B81882309F487
:101BB00052C08091CF029091D0020E94F21B9C01F2
:101BC0009091CB02992309F4C4C12A31310508F45C
:101BD00042C09F3F19F09F5F9093CB02112361F0A9
:101BE0000E94DD22111614F491E001C09FEF899F3D
:101BF000802D11248093D2021B81112361F00E9459
:101C0000DD22111614F491E001C09FEF899F802D11
:101C100011248093D3023091D2023323E1F020913A
:101C2000D3022223C1F045EB3403C00111249923D0
:101C300019F09093D20203C081E08093D20235EB79
:101C40002303C0011124992319F09093D30203C0F8
:101C500081E08093D3021C81111104C08D818823FF
:101C600009F452C08091CD029091CE020E94F21BE5
:101C70009C019091CA02992309F46FC12A31310560
:101C800008F442C09F3F19F09F5F9093CA0211234E
:101C900061F00E94BD22111614F491E001C09FEF83
:101CA000899F802D11248093D4021D81112361F01E
:101CB0000E94BD22111614F491E001C09FEF899F8C
:101CC000802D11248093D5023091D4023323E1F08A
:101CD0002091D5022223C1F045EB3403C001112429
:101CE000992319F09093D40203C081E08093D40229
:101CF00035EB2303C0011124992319F09093D502E9
:101D000003C081E08093D50245E050E0BE016F5FE3
:101D10007F4F81ED92E00E94C52E892BA9F480911E
:101D2000D20281110FC08091D30281110BC080912A
:101D3000D402811107C081E09091D502911103C0B6
:101D400080E001C081E080FD0E94CF2385E0FE019C
:101D50003196A1EDB2E001900D928A95E1F70E94D3
:101D600007279091FD01891769F08093FD018FB7D6
:101D7000F89440918E0250918F0260919002709180
:101D800091028FBF80919B03843009F01BCD80931B
:101D9000E9008091E80082FF15CD8091E80085FF81
:101DA00022C00E94991B81111CC000E210E05E015C
:101DB00041E2A40EB11C08C08091F100F5018193AD
:101DC0005F010150110969F08091E80085FDF4CFB1
:101DD0008091E8008B778093E8000E94991B88230C
:101DE00099F391E001C090E08091E8008B778093B7
:101DF000E800992309F4E6CC89A18130E9F158F192
:101E0000823021F0843009F480C0DCCC8BA19AA10F
:101E10009093FE018093FF018DA19CA190930002FD
:101E2000809301028FA19EA19093020280930302EE
:101E300042E150E063E270E0CE018F5B9F4F0E9471
:101E4000992C84E0898381E080939A038EEF8A83C2
:101E5000109299030CC019828CE0E4E4F1E0DE01F9
:101E6000129601900D928A95E1F78EEF8D87CE0143
:101E700001960E94F62AA6CC04E012E08AE0A82E81
:101E800082E0B82E0E945927F801819391938F0127
:101E9000AE16BF06B9F781E08983909104029A8358
:101EA000909105029B83909106029C83909107027A
:101EB0009D83909108029E83909109029F839EEFDB
:101EC000988780939903CE0101960E94F62A42E1F9
:101ED00050E063E270E0CE0101960E94992CFE0171
:101EE000319682E183301CF09189928B01C0128A75
:101EF000815031978F3FB1F742E150E063E270E0EB
:101F0000CE0101960E94BD2C5DCC80919A0388235E
:101F100009F458CC80E00E9454288AA10E948B28A2
:101F200051CC09BD19BD09B400FEFDCF8091D80088
:101F30008F7D8093D8008091E00082608093E000E4
:101F40008091E00081FDFCCF109298020E94D3287E
:101F500044CC232B09F03FCE7ECE2139314008F00E
:101F600093CED2CE80E008959091920292FF0DC060
:101F7000282F2871283019F4877F846006C0282F05
:101F80002471243011F48B7F886093FF0DC0282FBB
:101F90002871283119F4877E846106C0282F2471A6
:101FA000243111F48B7E88612091930220FF0DC0B3
:101FB000382F3871383019F4877F816006C0382F88
:101FC0003171313011F48E7F886021FF0DC0282FD0
:101FD0002871283119F4877E816106C0282F21716C
:101FE000213111F48E7E886194FD877E08957E30C4
:101FF000A0F4663090F494E5899FF001112486E006
:10200000789FE00DF11D1124E60FF11DEE0FFF1F6B
:10201000E957FD4F85919491089580E090E00895EF
:10202000CF93DF938238910569F1B0F48133910544
:1020300009F477C048F48932910509F469C08A32FD
:10204000910509F473C092C08533910509F45BC012
:1020500089339105B9F08AC0833E910591F138F436
:10206000803E9105D1F0823E910531F17FC0863EE0
:102070009105D9F1873E9105E9F1843E910509F07A
:1020800075C028C02091920220FD5BC021FD59C07F
:102090002091930223FD61C069C08091920280FD6E
:1020A0004AC08091930280FF4CC08091920284FDCF
:1020B0004EC183EE90E04DC18091920282FF3EC0FE
:1020C000F4CF8091920282FD39C08091930280FD0D
:1020D00038C0EBCF8091930281FF39C0809192028A
:1020E00084FD35C187EE90E034C18091920283FF78
:1020F0002BC0F4CF8091920283FD26C08091930281
:1021000081FD25C0EBCF8091920285FD26C022C0C3
:102110008091920285FD1EC08091930283FF1DC0B5
:102120000AC08091920286FD1BC01DC08091920260
:1021300086FD19C015C089E390E00BC182EE90E0E6
:1021400008C180EE90E005C186EE90E002C184EE09
:1021500090E0FFC085E390E0FCC089E290E0F9C028
:102160008AE290E0F6C081E390E0F3C0811531E5AA
:10217000930708F061C0811520E59207B0F09C013B
:102180002370332741E050E002C0440F551F2A95C9
:10219000E2F7282F2695269580E2289F90011124AA
:1021A000CA01822B932B9D68D4C0883E910568F5A7
:1021B000803E910508F0CDC0883A9105B8F4853A83
:1021C000910548F0855AE82FF0E0E05BFE4F8081F2
:1021D00090E09064BEC08130910509F4B5C008F468
:1021E000B6C08430910508F4B2C0B3C08F3B9105EE
:1021F00008F0ADC0885AE82FF0E0EE0FFF1FED5A4F
:10220000FE4F808191819464A4C0811530E29307D0
:1022100058F4811521E0920708F09BC08D3E91058E
:1022200008F495C0906595C0811530E4930708F4D3
:102230008EC09F70906A8DC0811525E5920708F0C9
:1022400042C0811534E5930728F0982F8827846FC2
:10225000906A7FC0811523E59207B0F09C0123703E
:10226000332741E050E002C0440F551F2A95E2F7A2
:10227000282F2695269580E2289F90011124CA01D7
:10228000822B932B9A6865C0811532E5930728F459
:10229000982F8827816F906A5CC09C012370332738
:1022A00041E050E002C0440F551F2A95E2F7282F65
:1022B0002695269580E2289F90011124CA01822B41
:1022C000932B9C6846C0EC01C11589E5D807B0F492
:1022D000C11528E5D20728F09C2F8827806F906AC7
:1022E00038C0C11536E5D30790F58C2F0E94B40F86
:1022F0008F7190E0982F882790622BC0C1158AE5D6
:10230000D80790F48C2F8F700E94B40F94E0D6956C
:10231000C7959A95E1F7CF70D0E0DC2FCC27D06934
:102320009E01282BC90115C0CE01905681159042FF
:1023300070F48D2F8F710E94B40F282F2F71CE0152
:1023400099279062922B05C081E090E002C080E066
:1023500090E0DF91CF91089568EE7EEF80E090E00D
:102360000E94EB2C60E082E090E00E94CD2C60E0C7
:1023700083E090E00E94CD2C1092840260E084E023
:1023800090E00E94CD2C64E082E290E00E94CD2C8F
:1023900060E085E090E00E94CD2C60E086E090E077
:1023A0000E94CD2C6FEF87E090E00E94CD2C40E0A2
:1023B00050E0BA0188E090E00E94DF2C60E08DE000
:1023C00090E00E94CD2C40E050E0BA0188E190E01E
:1023D0000E94DF2C60E087E190E00E94CD2C40E07D
:1023E00050E0BA018CE190E00E94DF2C60E070E0E8
:1023F00080E290E00E94EB2C40E050E0BA0188E1DE
:1024000090E00E94DF2C1092C6011092C70110923A
:10241000C8011092C90184E08093C6014091C601B1
:102420005091C7016091C8017091C9018FE090E09F
:102430000E94DF2C40E050E0BA0183E190E00E946E
:10244000DF2C0895809183028111109283020895F8
:10245000809590916E03892380936E0308958095F3
:102460009091980289238093980208959091980200
:1024700080916E03982B90930A02809183028823A7
:10248000D9F0892B80930A0280913201882331F0A0
:102490008091920287FF02C08EE101C086E0ECE0ED
:1024A000F2E090E0815028F021912223D9F39F5F40
:1024B000F9CF91110E94221240E250E063E672E0EF
:1024C0008AE092E00E94C52E892B21F180E2EAE0A9
:1024D000F2E0A3E6B2E001900D928A95E1F7E09177
:1024E0007303F09174033097A9F08091320188232F
:1024F00059F08091920287FF07C080910A02809371
:102500000B0286E080930A020280F381E02D8AE0CC
:1025100092E009950895209162028095822380932C
:102520006202982F977099F430E0482F082E000C23
:10253000550B2417350759F09091930292FF07C06D
:102540008595859585950E947E2810926202089552
:10255000CF93C0919302C2FB992790F9981791F0FD
:1025600080FBC2F9C09393026091920284E090E0F4
:102570000E94CD2C6C2F82E290E00E94CD2C82E054
:102580000E948B12CF910895809161029091300248
:10259000891719F08F5F8770FBCF08950F931F93F2
:1025A000CF93DF9380912F0282958F7009F05AC0EC
:1025B00080912C02882309F455C08091610210910A
:1025C000300260912A0270912B02C0912D02D091AD
:1025D0002E0291E06F3F09F090E0292F06E081176D
:1025E00009F440C0209721F07F3F21F030E003C084
:1025F00031E001C0322F90E030FD31C0089FF00182
:10260000099FF00D1124DF01AF5CBD4F11963C9185
:102610001197371324C03C91361321C012963C9178
:10262000129731111CC013964D915C9114974C1B5D
:102630005D0B453A510598F480912F028F708061AF
:1026400080932F02EA5CFD4F80818F7080618083D0
:102650008AE292E00E9458050E94C41203C00196CB
:102660008770BDCFDF91CF911F910F910895A1E1A8
:10267000B0E0EDE3F3E10C940D2C8C0185E0F80162
:10268000DE011D9601900D928A95E1F7F801E28036
:1026900090912A0260912B0240912D0250912E02BE
:1026A0004115510531F06F3F31F481E09F3F19F43E
:1026B00003C081E001C080E0F82FF1709F2E80FD03
:1026C0001BC1F80130812181C380D4808AE2A82E09
:1026D00082E0B82EF0902C02F601E41BF50BFF20EF
:1026E00009F4C7C080912F02E53AF10508F092C0C5
:1026F000482F407F09F051C0621311C093130FC0DF
:10270000FE2CE1100CC08F70806180932F02C501F8
:102710000E94580580912F02F80185832AC1C114B7
:10272000D10431F02F3F31F481E03F3F19F403C071
:1027300081E001C080E080FD03C081E08E2502C001
:1027400080E090E0F82FF170FF2E80FF1CC0809198
:1027500061024091300256E0841709F4E8C090E02D
:10276000589FF001599FF00D1124EF5CFD4F6181DE
:10277000261306C06081631303C06281E61203C0A2
:1027800001968770E9CFFE2CEE2009F4F2C080910B
:102790002F02816080932F0249C0621306C09313F9
:1027A00004C0E11002C0F80186C0C8010E949C2844
:1027B000882351F1EE2041F120912F02822F829542
:1027C0008F7090E0029774F080912A0290912B0212
:1027D00098878F831986DB86CA862C87CE01079659
:1027E0000E94580586E0F801AAE2B2E001900D923D
:1027F0008A95E1F70E94CE120AC06217C9F0C8019B
:102800000E949C2881111EC0C8010E945805FF2407
:10281000F394AFC0482F407F81F78AE292E00E9494
:10282000580586E0F50111928A95E9F7F12CA1C0CF
:102830009313E5CFE110E3CFF8018583C8010E942F
:10284000580554C0EE2001F320912F02822F82956B
:102850008F7090E0029734F280912A0290912B02BF
:102860009A8389831B82DD82CC822E83CE010196DE
:10287000B7CFE53AF105D0F5FE2CEE2029F2621330
:1028800027C0931325C020912F0220FD18C0822F4E
:1028900082958F70482F50E04115510581F0F80165
:1028A00025834F30510541F08F5F982F9295907F8F
:1028B000822F8F70892B8583C8010E94580586E07E
:1028C000F801AAE2B2E001900D928A95E1F751C0B9
:1028D000C8010E949C28811185CF80912F028160C0
:1028E00080932F02C8010E94580543C086E0F5017D
:1028F00011928A95E9F73DC0EE2009F485CFC80111
:102900000E949C28F82E882309F47ECF86E0F801E7
:10291000AAE2B2E001900D928A95E1F780912A0235
:1029200090912B020E94DE270E94CE1222C03D878A
:102930002E878D859E850E94DE27292F22952F7058
:10294000223028F49F7039F0811105C00BC024306B
:1029500028F49F7049F4805E883020F0C8010E94FE
:1029600058059F2CF92C05C0F8019581907F99F7A7
:10297000F9CF8F2D6196EBE00C94292CA0E0B0E00C
:10298000E4ECF4E10C94102C809134019091350129
:10299000892BB9F0809185028F5F80938502811128
:1029A00010C00E943B1E90E090933501809334014B
:1029B000892B39F40E94B21E81E0809333010E947A
:1029C000C91F0AEC11E07801D0E0C0E087E0C82E12
:1029D000CC0E8C2F0E94221F8C2D0E94221F8C2F28
:1029E0000E94851F8F73F7019081891721F08083E2
:1029F000DD24D39401C0D12C8C2D0E94851F8F73B0
:102A0000F7019781891719F0878381E001C080E081
:102A1000D82ADD290E94761FCF5FFFEFEF1AFF0A49
:102A2000C730A1F610928A02C0918902CC2309F422
:102A3000C4C00E947E262091870230918802AC019A
:102A4000421B530B9A0190938802809387024F3F59
:102A5000510509F018F4452B19F102C02FEF30E0B1
:102A60001092890210928602E091C401F091C50192
:102A7000AF01425F5F4F90E030E08081882341F0FA
:102A8000281718F010829C2F03C0821B80833C2FD4
:102A90003196E417F50789F73093890290938602FF
:102AA000DD2309F47BC0E091C401F091C501809160
:102AB0008A0290918902AEEDB1E0AF01425F5F4FB3
:102AC0006EE1E80128813C91321779F030813111B3
:102AD0000CC060832C9398819227282F30E0292BFB
:102AE00081E0232B09F480E091E0319611960F5F8D
:102AF0001F4FE417F50729F780938A029093890204
:102B0000C0918A022091990380918C0290918D024C
:102B10002223C9F1892B31F425982D9826982E98D7
:102B200027982F9880918C0290918D029170892B1B
:102B300079F480918B02882319F026982E9802C090
:102B4000269A2E9A90918B0281E0892780938B029E
:102B500080918C0290918D028130984750F01092B4
:102B600099038091D9010E94BA1D10928D02109292
:102B70008C0280918C0290918D02019690938D022F
:102B800080938C021EC0892BE1F010928D0210926E
:102B90008C028091D9010E94BA1D13C081E09091EE
:102BA0008602992309F4ACCF81117DCF0E947E2645
:102BB000909388028093870276CFD111F7CF80E07F
:102BC000EECF8C2FCDB7DEB7E8E00C942C2C8091A3
:102BD000BE0287FF11C08091E80082FD05C0809190
:102BE0009B038111F8CF11C08091E8008B770BC057
:102BF00080919B03882349F08091E80080FFF8CF03
:102C00008091E8008E778093E8000895982F9730A0
:102C100068F59093E900981739F07091EC002091D5
:102C2000ED005091F00003C0242F762F50E021FDDD
:102C300002C09F5FECCF3091EB003E7F3093EB0002
:102C40003091ED003D7F3093ED003091EB0031602D
:102C50003093EB007093EC002093ED005093F00064
:102C60002091EE0027FDE5CF80E008958F708093DE
:102C7000E90081E008952091C4023091C502261731
:102C8000370748F06115710539F42091E8002E7777
:102C90002093E80001C0B901FC0120E06115710535
:102CA00079F180919B038823F1F18530F1F18091D6
:102CB000E80083FD3CC08091E80082FD2EC0809139
:102CC000E80080FFEBCF2091F3008091F20090E0CC
:102CD000922B6115710551F08830910538F42191DE
:102CE0002093F100615071090196F3CF21E008971C
:102CF00009F020E08091E8008E778093E800CECF45
:102D00002111CFCF0AC080919B03882361F08530C9
:102D100061F08091E80083FD0AC08091E80082FFA5
:102D2000F2CF80E0089582E0089583E0089581E085
:102D30000895089580919A02089580939402709363
:102D400096026093950280919B03843001F585E0A3
:102D50008093E9008FEF9091E800815095FD06C0C7
:102D600095ED9A95F1F700008111F5CF8091E8007B
:102D700085FF0DC040E050E063E070E084E992E040
:102D80000E94CC2A8091E8008E778093E800089515
:102D9000BC0184E00E949D160895BC0183E00E945E
:102DA0009D16089522E02093E9002FEF3091E8006E
:102DB000215035FD06C035ED3A95F1F7000021119F
:102DC000F5CF2091E80025FF0BC040E050E065E022
:102DD00070E00E94CC2A8091E8008E778093E80012
:102DE0000895CF93DF9320913201222339F020916F
:102DF000920227FF03C060E225E002C068E021E004
:102E00002093E9002FEF3091E800215035FD06C0F6
:102E100035ED3A95F1F700002111F5CF2091E8004A
:102E200025FF1DC0EC0180913201811105C040E0F9
:102E300050E068E070E003C070E040E050E0CE0198
:102E40000E94CC2A8091E8008E778093E80080E28F
:102E5000FE01ABE9B2E001900D928A95E1F7DF91B6
:102E6000CF910895AAE2B0E0E8E3F7E10C94152CC5
:102E7000EEEBF2E086EC92E02091F10021938E17C8
:102E80009F07D1F78091BF02833009F463C030F40B
:102E9000813071F0823009F49FC0B6C08A3009F4E5
:102EA0008BC08B3009F46EC0893009F0ADC020C0F2
:102EB0008091BE02813A09F0A7C08091E800877F27
:102EC0008093E8008091C2029091C302892B21F483
:102ED00060E28BE992E003C060E080E090E070E0A7
:102EE0000E943B168091E8008B778093E8008CC0AD
:102EF0008091BE02813209F087C08091C202909118
:102F0000C302009719F0039709F07EC08091E80092
:102F1000877F8093E8008091E80082FD05C0809162
:102F20009B038111F8CF70C02091F3008091F200D3
:102F300090E0922B029731F48091F100813011F0F2
:102F4000863021F48091F10080939A028091E8000C
:102F50008B7756C08091BE02813A09F055C08091AE
:102F6000C2029091C302892B09F04EC08091E80003
:102F7000877F8093E8008091E80080FFFCCF8091FC
:102F8000320139C08091BE028132F1F58091C202D6
:102F90009091C302892BC1F58091E800877F8093CF
:102FA000E8000E94E7158091C002809332011092E0
:102FB00098020E94D32828C08091BE02813221F558
:102FC0008091E800877F8093E8000E94E715809158
:102FD000C1028093990218C08091BE02813AA1F487
:102FE0008091E800877F8093E8008091E80080FF6F
:102FF000FCCF809199028093F1008091E8008E7758
:103000008093E8000E94E7158091E80083FFE4C107
:103010008091BE029091BF02492F50E04A30510585
:1030200008F0DAC1FA01EF58FF4F0C94822D803876
:1030300021F0823809F0D0C108C08091BB02909184
:10304000BC02992389F082600FC08091C2028F7008
:10305000873008F0C1C18093E9008091EB0085FBC7
:10306000882780F91092E9009091E800977F90936B
:10307000E8008093F1001092F10070C1282F2D7F9D
:1030800009F0AAC1882319F0823061F0A5C18091AE
:10309000C002813009F0A0C1933009F080E0809334
:1030A000BC022EC08091C00281112AC08091C20250
:1030B0008F702FEF280F263008F08EC18093E90023
:1030C0002091EB0020FF1CC0933021F48091EB0095
:1030D000806214C09091EB0090619093EB0021E02E
:1030E00030E0A90102C0440F551F8A95E2F74093D2
:1030F000EA001092EA008091EB0088608093EB0078
:103100001092E9008091E800877F8093E8000E9498
:10311000E71562C1811160C11091C0021F778091D3
:10312000E3008078812B8093E3008091E800877F23
:103130008093E8000E94E7158091E80080FFFCCFB3
:103140008091E30080688093E300111102C082E067
:1031500001C083E080939B033FC18058823008F018
:103160003BC12091C0023091C1022C3D53E0350794
:1031700079F583E08A838AE289834FB7F894DE0188
:10318000139620E03EE051E2E32FF0E05093570029
:10319000E49120FF03C0E295EF703F5FEF708E2F48
:1031A00090E0EA3010F0C79601C0C0968D939D93D1
:1031B0002F5F243149F74FBF8091E800877F8093CC
:1031C000E8006AE270E0CE0101960E943B16B4C0AE
:1031D0008091C2029091C302432F5527433051057D
:1031E000A9F068F44130510509F405C14230510598
:1031F00009F0F2C084E790E0E5EEF6E04BC0413222
:10320000510529F14232510589F1E6C0C9019927DA
:1032100081309105A1F058F0029709F0DDC0EBE68E
:10322000F7E0E4918E2F90E0EBE6F7E030C0E9EBB9
:10323000F7E0E4918E2F90E0E9EBF7E028C0EFE8AB
:10324000F7E0E4918E2F90E0EFE8F7E020C08430C3
:10325000910508F0C1C0880F991FFC01E357FE4F8C
:103260000190F081E02D89E090E014C08430910558
:1032700008F0B2C0FC01EE0FFF1FEB57FE4F0190AC
:10328000F081E02DDC01AF57BE4F8C9190E00097AC
:1032900009F4A2C02091E800277F2093E800209144
:1032A000C4023091C5022817390708F4C90140E06B
:1032B000009789F120919B03222309F43DC025301A
:1032C000D9F12091E80023FD37C02091E80022FDCC
:1032D0002FC02091E80020FFEBCF4091F300209118
:1032E000F20030E0342B009759F02830310540F4DB
:1032F00044914093F100319601972F5F3F4FF3CFF8
:1033000041E02830310509F040E02091E8002E77B7
:103310002093E800CDCF4111CDCF0AC080919B030F
:10332000882351F0853041F08091E80083FD04C08E
:103330008091E80082FFF2CF8091E8008B77809344
:10334000E8004AC0803809F047C08091E800877FD4
:103350008093E8008091BD028093F1008091E800A5
:103360008E77D3CE811138C08091C0029091C10276
:10337000992702978CF58091E800877F8093E80079
:103380001091C0021093BD020E94E715111106C0F2
:103390008091E30087FD02C081E001C084E080935A
:1033A0009B0342E061EC81E00E94061642E061EC82
:1033B00082E00E94061642E261EC85E00E94061659
:1033C00042E261EC83E00E94061642E260EC84E097
:1033D0000E94061680919B038091E80083FF10C035
:1033E0008091E800877F8093E8008091EB00806205
:1033F0008093EB0005C082E190E0E9E5F7E04ACF79
:10340000AA96E3E00C94312C1F920F920FB60F9204
:1034100011242F933F934F935F936F937F938F93D9
:103420009F93AF93BF93CF93DF93EF93FF93C0919D
:10343000E900CF708091EC00D82FD17080FDD0E8EA
:103440001092E9008091F000877F8093F0007894DB
:103450000E9432171092E9008091F00088608093FA
:10346000F000CD2BCF70C093E900FF91EF91DF9179
:10347000CF91BF91AF919F918F917F916F915F910C
:103480004F913F912F910F900FBE0F901F90189565
:10349000E8EDF0E080818E7F80831092E200109250
:1034A000DA001092E100A0EEB0E08C9181608C9384
:1034B00080818F77808319BCA7EDB0E08C918E7FDF
:1034C0008C9380818F7E8083109297020895A0E074
:1034D000B0E0EDE6FAE10C94102CC8EDD0E0888164
:1034E0008F7E8883E7EDF0E080818160808384E0D7
:1034F00082BF81E08093970288818E7F888302EE6D
:1035000010E0F80110821092DA0081EEC82ED12C62
:10351000F601108288818F7788838881806888830C
:1035200088818F7D888319BC10929B031092BD0205
:103530001092BC021092BB0290EEE92EF12CF70122
:1035400080818B7F808388818160888342E060E016
:1035500080E00E940616F60180818E7F8083F8014C
:10356000808181608083808188608083F701808191
:103570008E7F8083888180618883CDB7DEB7E8E065
:103580000C942C2C1F920F920FB60F9211242F9394
:103590003F934F935F936F937F938F939F93AF93DB
:1035A000BF93EF93FF938091E10082FF09C0809168
:1035B000E20082FF05C08091E1008B7F8093E100F3
:1035C0008091DA0080FF2AC08091D80080FF26C059
:1035D0008091DA008E7F8093DA008091D90080FF9D
:1035E00018C080E189BD82E189BD09B400FEFDCF2C
:1035F00081E080939B038091970281110FC00E940C
:10360000481A0E94671A8091E20084608093E20069
:1036100005C019BC10929B03109297028091E100A3
:1036200080FF17C08091E20080FF13C08091E2000C
:103630008E7F8093E2008091E20080618093E200BF
:103640008091D80080628093D80019BC85E0809377
:103650009B038091E10084FF30C08091E20084FFF1
:103660002CC080E189BD82E189BD09B400FEFDCF97
:103670008091D8008F7D8093D8008091E1008F7E6B
:103680008093E1008091E2008F7E8093E200809140
:10369000E20081608093E2008091BD02882311F0F6
:1036A00084E007C08091E30087FD02C081E001C093
:1036B00083E080939B0380919B038091E10083FFD3
:1036C00027C08091E20083FF23C08091E100877FC3
:1036D0008093E10082E080939B031092BD02809171
:1036E000E1008E7F8093E1008091E2008E7F8093E5
:1036F000E2008091E20080618093E20042E060E0BD
:1037000080E00E9406168091F00088608093F000AF
:10371000FF91EF91BF91AF919F918F917F916F91A9
:103720005F914F913F912F910F900FBE0F901F907F
:1037300018952091E4003091E50095E64091EC0069
:10374000842F817040FF23C08091E80080FD1DC060
:1037500080919B03882399F0853099F08091EB004C
:1037600085FD11C04091E4005091E5002417350714
:1037700029F3915011F09A01E1CF84E0089582E09D
:10378000089583E0089581E0089580E008954091D0
:10379000E80042FFDDCF089578941F920F920FB694
:1037A0000F9211248F939F93AF93BF9380918E02BA
:1037B00090918F02A0919002B09191020196A11D6B
:1037C000B11D80938E0290938F02A0939002B093CC
:1037D0009102BF91AF919F918F910F900FBE0F906B
:1037E0001F9018959C014FB7F89480918E0290918C
:1037F0008F02A0919002B09191024FBF821B930B58
:1038000008959C013A9521153F4130F5BC0166278A
:103810007270AC01442754709C012227387094FFC9
:103820000FC090FF02C080E101C080E0672B09F06B
:103830008062452B09F08064232B79F0806808951D
:10384000892F8170672B09F08260452B09F0846015
:10385000232B19F08860089580E00895FC0182818F
:10386000813039F4958192FD12C090FF10C082E042
:103870000895823039F4858182FD06C080FD06C03E
:1038800083E0089586E0089585E0089584E0089532
:10389000CF93DF93EC018A81833031F40E94C32AF5
:1038A0000E94C32A0E94C32A8A81843010F00E9499
:1038B000C32ADF91CF9108950E94481C0895A7E183
:1038C000B0E0E5E6FCE10C94152C4B8B5C8B6D8B2A
:1038D0007E8B8F8B611110926E0386E09E01235FB9
:1038E0003F4FD901E82F1D92EA95E9F795E0FE01D7
:1038F0007396D90101900D929A95E1F79C894E89B2
:103900005F897B897D879E876F87598B488BF901FB
:10391000DE01179601900D928A95E1F7CE01079688
:103920000E94371381113EC086E0FE013796DE010A
:10393000119601900D928A95E1F7FF81E8856A85DD
:103940007B856115710531F0EF3F31F481E0FF3F78
:1039500019F403C081E001C080E080FD23C0209104
:10396000300230E0C90101968770992740916102C9
:1039700050E08417950779F1F983EA837D836C839E
:1039800096E0929FD001939FB00D1124AF5CBD4F84
:10399000FE01319601900D929A95E1F780933002E5
:1039A0000E94C41216E08091610290913002891742
:1039B00009F1189FC00111248F5C9D4F0E9437139D
:1039C0008823C1F08091610290E001968770992769
:1039D00080936102E8CF109298020E94D32810923F
:1039E000300210926102EAE2F2E086E0DF011D920D
:1039F0008A95E9F76796E3E00C94312C982F92951D
:103A00009F7019F0892F24E001C020E0982F96952F
:103A1000969511F02E5F892F982F969509F02F5FBC
:103A2000822F0895109298020E94D3282FEF84E3EA
:103A30009CE0215080409040E1F700C000009AE0F7
:103A400088E10FB6F894A895809360000FBE90931C
:103A50006000FFCFCF93DF93EC010E940929CE01D4
:103A6000805E9109089710F0209731F4CE010E94F2
:103A7000011C0E94F82805C0CE010E94011C0E9472
:103A8000E728DF91CF9108958FE39CE90197F1F743
:103A900000C000008091C902833029F0853031F0E8
:103AA000813041F403C08AE491E002C08DE491E0EA
:103AB0000E942A1D1092C90208958FE39CE9019784
:103AC000F1F700C000008091C702833029F08530F3
:103AD00031F0813041F403C08AE491E002C08DE40A
:103AE00091E00E942A1D1092C7020895CF93DF93A0
:103AF000EC01805E9109089710F0209731F4CE0117
:103B00000E94011C0E94FF2805C0CE010E94011CDA
:103B10000E94EE288C2F0E943E29DF91CF910895BC
:103B20000E942E1C8093C902833029F0853031F029
:103B3000813051F405C08AE491E004C00E94C32A98
:103B40008DE491E00E94761D08950E942E1C8093C2
:103B5000C702833029F0853031F0813051F405C03F
:103B60008AE491E004C00E94C32A8DE491E00E949F
:103B7000761D0895CF93C82F0E94FE1C56985E981C
:103B800025982D9826982E9827982F98482F50E002
:103B9000FA013197E730F105E0F4E558FF4F0C9456
:103BA000822D259A2D9A2BC0269A2E9A28C0279AC4
:103BB0002F9A16C0259A2D9A269A2E9A2FC0259AAA
:103BC0002D9A04C0259A2D9A269A2E9A279A2F9AD2
:103BD00025C08130A1F020F0823089F08330F1F4EB
:103BE0008091C301811144C00E94AC2360E081E058
:103BF0000E94712320E04FEF6FEF86E534C0809183
:103C0000C301811135C00E94AC2360E081E00E94B5
:103C1000712320E04FEF6BEE87E725C08091C30151
:103C2000811126C088E090E00E94B12C6093690366
:103C300070936A0380936B0390936C03862F60FFED
:103C400015C081608093690386950E94B623809198
:103C5000690386950E94B62321E040916C03609130
:103C60006B0380916A030E94852102C00E94B720E5
:103C70008C2FCF91089580E290E09093350180934E
:103C800034018091D60281110EC00E94222B81E066
:103C90008093D6022FEF83ED90E321508040904037
:103CA000E1F700C0000060E570E080E40E94282B8E
:103CB0009093350180933401892B09F04EC060E563
:103CC00070E080E00E949B2B90933501809334013B
:103CD000892B09F042C060E570E080E00E949B2BD8
:103CE0009093350180933401892BB9F560E570E03C
:103CF0008FE30E949B2B9093350180933401892B95
:103D000061F50E94EE2B60E570E080E40E94282BB4
:103D10009093350180933401892BF9F460E570E0CC
:103D20008CE00E949B2B9093350180933401892B6A
:103D3000A1F460E570E080E00E949B2B9093350138
:103D400080933401892B49F460E570E08FE30E9491
:103D50009B2B90933501809334010E94EE2B809130
:103D600034010895CF93DF9356985E9825982D9847
:103D700026982E9827982F98C8E8D0E08FEF90E0EB
:103D800099838883AAE8B0E011969C938E93ECE81F
:103D9000F0E091838083259A2D9A2FEF80E792E0BF
:103DA000215080409040E1F700C00000269A2E9AF2
:103DB0002FEF80E792E0215080409040E1F700C073
:103DC0000000279A2F9A2FEF80E792E02150804041
:103DD0009040E1F700C0000025982D982FEF80E774
:103DE00092E0215080409040E1F700C0000026980A
:103DF0002E982FEF80E792E0215080409040E1F72D
:103E000000C0000027982F988091C60187702FEF7F
:103E1000829FC0011124959587959595879599273F
:103E20009983888311969C938E939183808356986F
:103E30005E9825982D9826982E9827982F98DF9190
:103E4000CF910895CF93E82F873080F5809134018A
:103E500090913501892B09F047C0CE2F60E570E0C5
:103E600080E40E94282B9093350180933401892BA4
:103E7000D1F460E570E082E10E949B2B90933501C4
:103E800080933401892B79F481E090E001C0880FA0
:103E9000CA95EAF760E570E080950E949B2B9093AD
:103EA0003501809334010E94EE2B1EC090E0FC018E
:103EB0003797E730F105C0F4EE57FF4F0C94822D91
:103EC000209A289811C0219A29980EC0229A2A98DF
:103ED0000BC0239A2B9808C0529A5A9805C0539A3F
:103EE0005B9802C03E9A4698CF91089520982898F2
:103EF0002198299822982A9823982B9852985A9872
:103F000053985B983E9846980895CF93873040F534
:103F10008091340190913501892B59F560E570E06D
:103F200081E40E94282B9093350180933401892BE2
:103F300011F0C0E011C080E590E00E94CA2B97FF0D
:103F400005C09093350180933401F3CFC82FC095FD
:103F500010923501109234010E94EE2B8C2F0AC072
:103F60009FB18FB1807F869586959370892B8095C0
:103F700001C080E0CF9108958098889A8198899AAD
:103F800084988C9A85988D9A86988E9A87988F9A1D
:103F90000895EF92FF920F931F93CF93DF93809139
:103FA000690380FF08C002EE12E08EE1E82E83E094
:103FB000F82EF8011BC0E2EEF2E08EE193E01182F0
:103FC00010821282138234968E179F07C1F7EBCFAF
:103FD000381708F4832F8383381B3183281B2083F1
:103FE000981B92833496EE16FF0641F09281208151
:103FF0003181892F291760F7822FEACF8091D6026D
:10400000882381F18091340190913501892B51F5FC
:1040100080913301882331F165E070E084E80E94EB
:10402000282B892B19F0109233011AC0C2EED2E06E
:1040300065E070E088810E949B2B65E070E08981DB
:104040000E949B2B65E070E08A810E949B2B65E0BB
:1040500070E08B810E949B2B2496EC16FD0641F7A5
:104060000E94EE2B579A8BB18F779BB190682FB738
:10407000F894E016F10699F0F80131918F0148E0CB
:104080009BB9000000C037FF8BB9330F000000C0A0
:1040900000C000C08BB900C04A9591F7EACF2FBF8E
:1040A0008FE594E00197F1F700C00000CDB7DEB7CF
:1040B000E6E00C942E2C9091690390FF0DC0E2EE87
:1040C000F2E08183608342831382349693E0EE3181
:1040D000F907B9F70E94C91F089580916903282F35
:1040E000269530E02115310519F48170826005C0F4
:1040F0002B32310524F08170846580936903089523
:10410000CF92DF92EF92FF926B017C010E946D20B3
:10411000B701A60188E090E00E94DF2CFF90EF90AD
:10412000DF90CF90089580916D03882319F081501E
:1041300080936D036091690370916A0380916B03B2
:1041400090916C030E948020089580916D038330CC
:1041500018F48F5F80936D036091690370916A0317
:1041600080916B0390916C030E9480200895E9E692
:10417000F3E080818E7F8083608171818281938171
:104180000E9480201092DE022FEF80E792E0215003
:1041900080409040E1F700C000000E94C91F0895D0
:1041A000E9E6F3E083E0808311828FEF82838383EB
:1041B000148260817181828193810E9480200895A0
:1041C000A0E0B0E0E6EEF0E20C940E2CE82EF62E25
:1041D000E901E42FF0E0611106C0E354F84FE491E7
:1041E0004E2F2E2F71C0062F10E0E354F84F44914C
:1041F000F42FC42ED12C26E0829FC00111242FEF72
:1042000030E0B9010E94F22B5BEA5603C001579FD0
:10421000900D11248E0D911D8E0D911D582F550F4F
:10422000580FD901A01BB10BAC9DC001AD9D900DE5
:10423000BC9D900D1124E92FF59ED0011124AB2FC8
:10424000BB277901EA1AFB0AEC9CD001ED9CB00D6A
:10425000FC9CB00D11245901A51AB108A09E700153
:10426000A19EF00CB09EF00C1124EF2CFF242E190F
:104270003F092C9D80012D9D100D3C9D100D11249A
:10428000212F6230710591F048F461157105E1F05C
:1042900061307105B9F4242F4B2F16C064307105BD
:1042A00069F040F06630710579F00CC0242F492F79
:1042B000E12F0AC0492FEF2F2B2F06C0292FE42F03
:1042C000412F02C0292FEB2F49832883EA831B82C9
:1042D000CDB7DEB7EAE00C942A2CA4E0B0E0E3E727
:1042E000F1E20C94162C9091690390FF0AC09E0194
:1042F0002F5F3F4F0E94E0204B8169818A810E949D
:104300005B202496E2E00C94322CA4E0B0E0EBE8D1
:10431000F1E20C94092CF82E762EE42E622E909168
:10432000690390FF67C0E92FE695AE2FB0E0AB566A
:10433000BE4F8C918093DD029E7F923061F49E018E
:104340002F5F3F4F8F2D0E94E0204B8169818A8132
:104350000E945B203DC0823019F4E0906C0338C0AD
:10436000863019F4F0906A0333C08930D9F389316B
:1043700079F5E9518E2F8170582EE695F0E0E354DF
:10438000F74FE4910E2F10E082EEC82E82E0D82E77
:10439000A12CB12C9FE0892E912CC501B4010E9463
:1043A000F22B8F2D511002C0860F01C0861B960183
:1043B0004E2D672D0E94E020A00EB11E84E0C80E95
:1043C000D11C8EE1C81683E0D80639F70E94C91FB8
:1043D000F0926A0370926B03E0926C03662051F0D6
:1043E0006091690370916A0380916B0390916C03F3
:1043F0000E9480202496EFE00C94252CE9E6F3E05F
:1044000043812CE0421B08F440E021E0628181817D
:104410000E9485210895E9E6F3E043812CE0420FF4
:1044200008F44FEF21E0628181810E948521089587
:10443000E9E6F3E062812FEF621B08F460E021E01F
:10444000438181810E9485210895E9E6F3E062813C
:104450002FEF620F08F46FEF21E0438181810E940A
:1044600085210895E9E6F3E0818121E043816281BD
:104470008C500E9485210895E9E6F3E0818121E0D6
:1044800043816281845F0E94852108958D3E39F4C5
:104490009091D30297FF35C01092D30259C08E3E3F
:1044A00029F49091D3021916BCF32BC09091D2023B
:1044B0008F3E29F497FF25C01092D20249C0803F59
:1044C00019F41916CCF31DC09091D402893F29F438
:1044D0001916BCF41092D4023BC08A3F19F497FF1E
:1044E00010C0F8CF8B3F39F49091D50297FF09C0E7
:1044F0001092D5022DC08C3F21F49091D50219164F
:10450000BCF39FE0980F983080F421E030E0A901DF
:1045100002C0440F551F9A95E2F7CA018095909109
:10452000D10289238093D10213C08D3F21F4809161
:10453000CC028E7F0BC08E3F21F48091CC028D7F08
:1045400005C08F3F29F48091CC028B7F8093CC02F1
:104550008091D202811106C08091D302811102C0E4
:104560001092CB028091D402811106C08091D502B5
:10457000811102C01092CA0208958091CC0280FD80
:1045800018C081FD14C082FD16C08091CA02882324
:1045900081F08C3380F425E0829FC00111246CE30C
:1045A00070E00E946E2D862F672B19F005C082E007
:1045B000089581E0089585E008958091CC0280FD02
:1045C00017C081FD17C082FD19C08091CB028823DE
:1045D00099F08C3398F428E2829FC00111246CE397
:1045E00070E00E946E2D862F672B49F481E00895BC
:1045F0008AE0089584E1089588E0089588E20895A6
:104600008D3E21F40E94DD22819504C08E3E29F466
:104610000E94DD228093D30208958F3E21F40E94F0
:10462000DD22819504C0803F29F40E94DD22809321
:10463000D2020895893F19F40E94BD2205C08A3F25
:1046400031F40E94BD2281958093D40208958B3F5E
:1046500021F40E94BD22819504C08C3F29F40E9460
:10466000BD228093D50208959FE0980F983078F48A
:1046700021E030E0A90102C0440F551F9A95E2F7EE
:10468000CA019091D102892B8093D10208958D3F68
:1046900021F48091CC0281600BC08E3F21F4809187
:1046A000CC02826005C08F3F29F48091CC028460E7
:1046B0008093CC02089560916903669570E04BE0A9
:1046C00050E086E391E00E94B82E892B19F481E036
:1046D0008093DE020E947E269093D8028093D702B8
:1046E00008959091690390FF36C09170811102C0C6
:1046F000926006C08B3210F0946502C0880F982B30
:1047000090936903662351F06091690370916A0385
:1047100080916B0390916C030E94802060916903EB
:10472000669570E04BE050E086E391E00E94B82E81
:10473000892B19F01092DE0202C00E945B2381E0F7
:104740008093DA0220E040916C0360916B038091CA
:104750006A030E9485210895E9E6F3E08081816083
:10476000808360E086950E947123089561E00E9435
:1047700071230895809169038695815009F48AE236
:1047800061E00E94712308958091690386958F5F8F
:104790008B3208F081E061E00E94712308950E944D
:1047A0007E262091D202211104C02091D30222231F
:1047B00021F09093D0028093CF022091D402211156
:1047C00004C02091D502222321F09093CE02809341
:1047D000CD02E0917303F0917403309731F00480BF
:1047E000F581E02D81ED92E0099508950895A0E00E
:1047F000B0E0EDEFF3E20C940D2CFC01A28094806C
:1048000081E08483E2ECF8E0B490E1E4F9E0E49143
:10481000CEE1D3E0F2EEEF2EF2E0FF2ECC24CA94EC
:10482000D12CEB190E2F10E022E02A1530F08091E8
:104830006A03888380916B038983911003C01B8274
:104840001A8255C08B818823F9F081508B832FEF1A
:10485000829FC00111246C8170E00E94F22BFB0149
:10486000FF27EE53F74F8491E82FEB192FEFE29FCC
:10487000C0011124B8010E94F22B80916C03689F43
:10488000B00111247A8333C00E94892C20916C03DB
:104890002695215830E0A901440F551F322F2227B9
:1048A000240F351F232F33278217930704F582E047
:1048B0008A1588F40E94892CB6010E946E2D888387
:1048C0000E94892C20916B032695622F70E00E9434
:1048D0006E2D280F29831A8280916C03843120F079
:1048E000893C18F088EC01C084E18C838B839701AC
:1048F0004A81698188810E94E020259624E0E20EA9
:10490000F11C83E0C936D80709F08ECF0E94C91F79
:10491000CDB7DEB7EBE00C94292CEF92FF920F930A
:104920001F93CF93DF938C01C2EED2E0E12CF12CE8
:10493000F8018481F7E0EF16F1041CF4882339F0C4
:1049400002C0811104C09E0140916C0302C09E010F
:1049500040E060916B0380916A030E94E0208FEF3A
:10496000E81AF80A24969FE0E916F10409F70E9474
:10497000C91FF801848190E0019681709927848392
:10498000CDB7DEB7E6E00C942E2CA0E0B0E0EBEC67
:10499000F4E20C940C2CEC014C81042F10E09801F3
:1049A000D8010E94452D9B01AC010E94102D6B0186
:1049B0007C01E0E2F0E0E01BF10BA5E5B0E09B013B
:1049C000AC010E94102D4B015C019F01DF010E9490
:1049D000882D9B01AC010E941B2D9B01AC012C0D6D
:1049E0003D1D4E1D5F1DC501B4010E94232D822F68
:1049F000F22E99E2921728F093E0299F900111245A
:104A00000DC025E530E0281B3109C901880F991F29
:104A1000280F391F37FF02C02F5F3F4F359527956D
:104A2000122F109592EEC92E92E0D92E00E085E566
:104A3000E82EEF1801FD02C08E2D01C08F2D9601CA
:104A4000412F60916B030E94E0200F5F84E0C80E4D
:104A5000D11C0F3079F70E94C91F8C81811102C0CF
:104A600091E003C0803219F49FEF9093430190913D
:104A70004301890F8C83CDB7DEB7ECE00C94282C72
:104A80000F931F93CF93DF93C2EED2E0FE0111820A
:104A9000108212821382349683E0EE31F807B9F760
:104AA00000E010E08091E002082E000C990B08173E
:104AB000190794F080914201082E000C990B801781
:104AC000910754F09E0140916C0360916B038091BB
:104AD0006A030E94E02004C0198218821A821B8295
:104AE0000F5F1F4F24960F301105E1F60E94C91F7A
:104AF000809141019091E002980F9093E002209103
:104B00004201280F20934201121614F49E301CF02B
:104B1000819580934101DF91CF911F910F9108956D
:104B2000A0E0B0E0E6E9F5E20C940F2CFC018281F4
:104B300080FF03C0DD24DA9402C0DD24D39402EEAA
:104B400012E0C0E0D0E02FE0B22EF8011182108216
:104B50001282138294E0E92EF12CC12C8091DF02A5
:104B60008C0D80312CF06B2D0E94602D892F02C09E
:104B700087FD815F082E000C990BC817D90791F4A7
:104B800080916C038E9DA0018F9D500D1124559531
:104B9000479555954795980160916B0380916A03FD
:104BA0000E94E020CD0CF1E0EF1AF108B9F6219651
:104BB0000C5F1F4FCF30D10541F60E94C91F809175
:104BC000DF0291E0D91206C0811102C08EE007C059
:104BD000815005C090E00196BE010E946E2D809329
:104BE000DF02CDB7DEB7E9E00C942B2CEF92FF92F9
:104BF0001F93CF93DF93EC0182EEE82E82E0F82E34
:104C000010E08C81970140916C0360916B03810FE0
:104C10000E94E0201F5E84E0E80EF11C1F3F89F730
:104C20000E94C91F9A818C8190FF02C08F5F01C0D2
:104C300081508C83DF91CF911F91FF90EF90089569
:104C4000A4E0B0E0E6E2F6E20C94142C8C01809132
:104C5000E10281110AC09E012F5F3F4F4FEF6FEFBE
:104C60000E94E0208A818093E102F80184818130F2
:104C700051F028F0823061F44091E1020AC0809145
:104C8000E10240E007C06091E10240E080E003C043
:104C900040E080E060E00E945B20F801848190E0C9
:104CA000019663E070E00E946E2D84832496E4E018
:104CB0000C94302CCF93DF93EC01E9E6F3E04381D1
:104CC00062818C810E946D218C818F5F8C83DF914A
:104CD000CF910895CF93DF93EC01EC81F0E0EE5398
:104CE000F74F4491E9E6F3E0628181810E946D21F2
:104CF0008C818F5F8C83DF91CF9108952FB7F894CB
:104D000080918E0290918F02A0919002B0919102B9
:104D10002FBF08951F920F920FB60F9211248F93F9
:104D20009F93AF93BF9380917703811113C08091BC
:104D30008E0290918F02A0919002B09191024196C3
:104D4000A11DB11D80938E0290938F02A0939002BB
:104D5000B0939102BF91AF919F918F910F900FBE31
:104D60000F901F901895209132012223C9F02091B5
:104D7000920227FF15C0262F2695269526952E31BF
:104D8000C8F4FC01E20FF11D677081E090E001C002
:104D9000880F6A95EAF78095928189238283089526
:104DA000FC0106962281621301C012823196E81737
:104DB000F907C1F7089520917503309176032817FC
:104DC000390771F09093760380937503E091730334
:104DD000F0917403309721F00084F185E02D09955E
:104DE000089520917103309172032817390771F0EB
:104DF0009093720380937103E0917303F0917403B5
:104E0000309721F00680F781E02D09950895E09113
:104E10007303F0917403309729F00190F081E02D35
:104E20000995089580E00895CF93DF93EC01EA851A
:104E3000FB85309719F06C857D8509958B810E94E3
:104E400028128C810E942F120E94361286E0FE01E9
:104E500011928A95E9F7DF91CF910895CF93DF936F
:104E6000EC018D8181FD18C082608D8390916E036D
:104E70008B81892B80936E03909198028C81892B72
:104E8000809398020E943612E885F985309721F0C8
:104E90006C857D85CE0109951092700310926F0389
:104EA0008D8180FD03C0CE010E941427DF91CF9138
:104EB0000895CF93DF930E94892C66E070E00E94F2
:104EC0006E2DD82F0E94892C6EE070E00E946E2D0E
:104ED000C82F6D2F782F80E00E94F70F0497C59799
:104EE00018F48D2F9C2F02C00E945927DF91CF917B
:104EF00008959091690390FF04C09695981748F023
:104F000003C0811106C090E0961718F40E94C423D4
:104F100008950E94B6230895882311F0FA0101C074
:104F2000FB010995089580E090E00E94F12680E061
:104F300090E00E94DB2610926E030E943612E1ED93
:104F4000F2E085E0DF011D928A95E9F71092CB022D
:104F50001092CA021092CC020E94CF230895CF92E1
:104F6000DF92FF920F931F93CF93DF936C01009119
:104F7000D90180918402082BC7E0D0E010E0C8017D
:104F80000C2E02C0959587950A94E2F780FD04C027
:104F90002197A8F7F12C09C0FC2EB6018C2F0E9496
:104FA000F70F0E941010019799F38F2DDF91CF9189
:104FB0001F910F91FF90DF90CF900895CF93DF93D3
:104FC000EC010E94AF27BE010E94F70F0E94101053
:104FD000DF91CF910895292F9E3078F5863068F5BE
:104FE00090E036E0239F800D911D1124682F67709B
:104FF00023E0969587952A95E1F7FC01EE0FFF1FB8
:10500000E80FF91FE858FC4F40E050E080E02191A4
:1050100030E0062E02C0369527950A94E2F72170FB
:105020003327042E01C0220F0A94EAF7822B4F5F28
:105030005F4F4330510559F7089580E00895292FB7
:105040009E3088F5863078F590E036E0239F800D1D
:10505000911D1124282F277051E001C0550F2A956A
:10506000EAF723E0969587952A95E1F7FC01EE0F84
:10507000FF1FE80FF91FE858FC4F20E030E070E018
:105080004081CB01022E02C0969587950A94E2F7E3
:105090008170819584278523842781932F5F3F4FDB
:1050A0002330310569F70895A0E2B0E0EAE5F8E2BF
:1050B0000C94152C0E94BA1D182F80919A038823F6
:1050C000A9F02FEF80E792E0215080409040E1F777
:1050D00000C0000085E08983812F0E94FE1C8A8326
:1050E0008EEF8B83CE0101960E94F62A1093D90190
:1050F0000E949327A096E3E00C94312C21E030E04D
:1051000001C0220F8A95EAF720958091D901822368
:105110000E945428089521E030E001C0220F8A95B2
:10512000EAF78091D901822B0E9454280895809338
:1051300084020E9493270895CF93FC01808191817E
:1051400023813481232B31F09F3F31F491E08F3F55
:1051500019F403C091E001C090E0C92FC17090FD27
:105160001CC0808191810E94DE2792959F709630AD
:1051700079F010F4925001C09A50923088F4803F38
:1051800071F018F4883E60F40AC0843F49F407C007
:10519000883E28F0813F21F402C0C0E001C0C1E098
:1051A0008C2FCF91089580913201882331F0809126
:1051B000920287FF02C08EE101C086E0ECE0F2E0DF
:1051C000DF011D928A95E9F70E94932708958823AD
:1051D00021F00E9428120E9436120895882339F087
:1051E00090916E03892B80936E030E94361208956E
:1051F000882321F00E942F120E94361208958823DE
:1052000039F090919802892B809398020E9436126F
:105210000895882391F19CEF980F913A30F4682F0C
:105220008AE092E00E94B3260DC090E2980F983079
:1052300060F4877091E001C0990F8A95EAF7892F91
:105240000E942F120E94361208959BE5980F93300A
:1052500028F480E090E00E94F126089598E5980FE8
:10526000973128F480E090E00E94DB2608958D3E7F
:1052700020F00E9446220E94CF230895CF938823D6
:1052800009F49FC0C82F8CEF8C0F813A08F05BC0E7
:10529000809132018823E1F08091920287FF18C04B
:1052A000EC2FE695E695E695F0E0E65FFD4F82810E
:1052B000282F30E04C2F477081E090E002C0880F2B
:1052C000991F4A95E2F782239323892B59F411C041
:1052D000ECE0F2E08191C81729F082E0E231F807B2
:1052E000C9F707C06C2F8AE092E00E94B3260E94A3
:1052F0003612809132018823B1F08091920287FFAB
:1053000012C0EC2FE695E695E695F0E0E65FFD4FDE
:10531000C77081E090E001C0880FCA95EAF79281DA
:10532000892B828320C0ACE0B2E0EFEF80E09D915A
:10533000C917C9F0EF3F19F4911101C0E82F8F5F31
:105340008630A9F735C080E28C0F883078F4C770BA
:1053500081E090E001C0880FCA95EAF79091980229
:10536000892B809398020E9436122BC0EBE5EC0F3C
:10537000E33040F4F0E0E05BFE4F808190E00E947B
:10538000F1261FC0E8E5EC0FE73150F4F0E0EE0F36
:10539000FF1FED5AFE4F808191810E94DB2611C0D4
:1053A000CD3E78F08C2F0E9400230E94CF2309C0AD
:1053B000EF3FC9F20E2E000CFF0BE65FFD4FC283DC
:1053C000D2CFCF9108951F93CF93DF93182FEB0186
:1053D0000E943E29209741F08FE99FE00197F1F765
:1053E00000C000002197F6CF812F0E940929DF918C
:1053F000CF911F910895A0E0B0E0E1E0FAE20C94B3
:105400000E2CEC018AE0A82EFE012491222309F43F
:10541000B5C0213009F044C031968491813059F4EF
:105420002296FE018491893319F060E070E091C00A
:1054300060E570E08EC0823031F42296FE018491E6
:105440000E943E298AC0833031F42296FE01849165
:105450000E94092982C0843009F07EC02296FE0194
:10546000249180E090E030E0205331092A3031056A
:1054700060F4A89EA001A99E500D1124C901840FBB
:10548000951F2196FE012491EECF009709F465C087
:10549000EFE9FFE03197F1F700C000000197F5CF89
:1054A000E22FF0E0EE50F64FB490822F869586956D
:1054B000869590E0FC01EE51F64FE4902770F12CB8
:1054C000022E02C0F594E7940A94E2F7F1E0EF228D
:1054D000FF24FC01EE52F64FC490D12C022E02C0E4
:1054E000D594C7940A94E2F731E0C322DD24FC018D
:1054F000EE53F64F049110E002C0159507952A95DA
:10550000E2F701701127E114F10419F081EE0E9415
:105510003E29C114D10449F186EE0E943E2989E357
:10552000B816E9F060E070E08B2D0E94E329C11409
:10553000D10419F086EE0E940929E114F10419F052
:1055400081EE0E9409290115110539F060E070E033
:105550008CE20E94E32901C0EF01219655CF60E55E
:1055600070E089E30E94E329E5CFE9E3BE12DACFD8
:1055700060E570E089E30E94E329DFCFCDB7DEB7B5
:10558000EAE00C942A2C8DE491E00E94761D8DE4D3
:1055900091E00E942A1D0895EF92FF920F931F93AE
:1055A000CF93DF937C018B010E94991B811119C05D
:1055B000E70101151105A1F08091E80085FD0AC001
:1055C0008091E8008E778093E8000E94991B8823E1
:1055D00081F307C089918093F10001501109E9CF4F
:1055E00080E0CDB7DEB7E6E00C942E2CCF9320916F
:1055F0009B03243029F5C091E900CF703091EC0075
:10560000232F217030FD20E8C22B23E02093E900F6
:105610002091E80020FF11C040E050E060E270E01F
:105620000E94CC2A882321F01092990310929A03A9
:105630008091E8008E778093E800CF70C093E900F6
:10564000CF9108951092B9008CE08093B80008952E
:10565000A0E0B0E0EEE2FBE20C940D2CB82EEB01E2
:105660000E947E266C01C431D10558F0CF3F8FEFE8
:10567000D80759F0CE0164E170E00E94F22B7B0163
:1056800007C0EE24E394F12C03C025E0E22EF12CB8
:1056900084E8A82E94EA992E1092BC009092BC0047
:1056A0000E947E268C018091BC0087FD07C0C80146
:1056B0000E94F21BE816F906B0F729C08091B900E4
:1056C000887F883041F08091B900887F803119F05F
:1056D0000FEF1FEF1EC0B092BB00A092BC000E9453
:1056E0007E268C018091BC0087FD07C0C8010E9406
:1056F000F21BE816F906B0F70AC08091B900887F5E
:10570000883111F0803421F700E010E00EC00EEF78
:105710001FEFCF3F8FEFD80709F4BECFC6010E941D
:10572000F21BC817D90708F0B7CFC801CDB7DEB74D
:10573000EBE00C94292C0F931F93CF93DF93EB0195
:105740008093BB0084E88093BC000E947E268C017D
:105750008091BC0087FD0DC0CF3F8FEFD807C1F30C
:10576000C8010E94F21BC817D90790F78EEF9FEF70
:105770000CC02091B900287F81E090E0283211F41C
:1057800080E090E0919581959109DF91CF911F91F3
:105790000F9108950F931F93CF93DF93EC0184E84B
:1057A0008093BC000E947E268C018091BC0087FD06
:1057B0000DC0CF3F8FEFD807C1F3C8010E94F21B85
:1057C000C817D90790F78EEF9FEF03C08091BB00F9
:1057D00090E0DF91CF911F910F91089584E980931C
:1057E000BC000895AA1BBB1B51E107C0AA1FBB1F29
:1057F000A617B70710F0A61BB70B881F991F5A955D
:10580000A9F780959095BC01CD0108952F923F9204
:105810004F925F926F927F928F929F92AF92BF92C0
:10582000CF92DF92EF92FF920F931F93CF93DF936C
:10583000CDB7DEB7CA1BDB0B0FB6F894DEBF0FBEC9
:10584000CDBF09942A88398848885F846E847D8416
:105850008C849B84AA84B984C884DF80EE80FD8018
:105860000C811B81AA81B981CE0FD11D0FB6F8948E
:10587000DEBF0FBECDBFED0108958F929F92AF9214
:10588000BF92CF92DF92EF92FF92CF93DF93EC0122
:10589000688179818A819B816115710581059105F6
:1058A00021F464E279ED8BE597E02DE133EF41E0FF
:1058B00050E00E94F12C49015A019B01AC01A7EA7A
:1058C000B1E40E94102D6B017C01ACEEB4EFA50198
:1058D00094010E941E2DDC01CB018C0D9D1DAE1D7F
:1058E000BF1DB7FF03C00197A109B0488883998302
:1058F000AA83BB839F77DF91CF91FF90EF90DF90DA
:10590000CF90BF90AF909F908F9008950E943D2CB4
:10591000089580E091E00E943D2C0895A0E0B0E061
:105920008093000190930101A0930201B0930301C1
:105930000895DC01CB01FC01F999FECF06C0F2BD50
:10594000E1BDF89A319600B40D9241505040B8F73D
:105950000895F999FECF92BD81BDF89A992780B537
:105960000895A6E1B0E044E050E00C949B2CA8E13F
:10597000B0E042E050E00C949B2CDC01A40FB51F7A
:105980004150504048F0CB01840F951F2E910E944A
:10599000CE2C41505040D0F70895262FF999FECFD4
:1059A00092BD81BDF89A019700B4021639F01FBA72
:1059B00020BD0FB6F894FA9AF99A0FBE089503968F
:1059C000272F0E94CE2C0E94CD2C252F0E94CE2C5A
:1059D000242F0C94CE2C0196272F0E94CE2C0C94B1
:1059E000CD2C052E97FB1EF400940E94082D57FD28
:1059F00007D00E94232D07FC03D04EF40C94082DF1
:105A000050954095309521953F4F4F4F5F4F0895EA
:105A100090958095709561957F4F8F4F9F4F08951A
:105A20000E94452DA59F900DB49F900DA49F800DC1
:105A3000911D11240895B7FF0C94102D0E94102D74
:105A4000821B930B0895A1E21A2EAA1BBB1BFD011A
:105A50000DC0AA1FBB1FEE1FFF1FA217B307E4074D
:105A6000F50720F0A21BB30BE40BF50B661F771FA5
:105A7000881F991F1A9469F7609570958095909585
:105A80009B01AC01BD01CF010895A29FB001B39F5E
:105A9000C001A39F700D811D1124911DB29F700D37
:105AA000811D1124911D0895991B79E004C0991F4F
:105AB000961708F0961B881F7A95C9F78095089568
:105AC00087FB082E062687FD819567FD61950E945C
:105AD000542D0EF4919507FC8195089597FB072EA0
